:020000040800F2
:10000000D0060020D5000008E11B0008C917000831
:1000100000000000000000000000000000000000E0
:10002000000000000000000000000000C51D0008E6
:100030000000000000000000291C0008C71D000887
:100040000501000805010008050100080501000878
:100050000501000805010008050100089D050008CC
:100060000501000805010008050100080501000858
:100070000501000805010008050100080501000848
:100080000501000800000000000000000501000854
:100090000000000005010008050100080501000836
:1000A0000000000005010008050100080501000826
:1000B0000501000800000000050100080501000816
:1000C0000348854600F092F800480047F9220008EE
:1000D000D00600200C4880F308880C480168090EFF
:1000E0000B4A914205D10B480B4901600B480C4962
:1000F00001600C4880470C480047FEE7FEE7FEE73A
:10010000FEE7FEE7FEE70000D00600200400000046
:100110001F00000018100240010000000000014014
:10012000000000002D1E0008C100000830B50B467D
:10013000014600202022012409E00D46D5409D42C1
:1001400005D31D469540491B254695404019154647
:10015000521E002DF1DC30BD70B50024254600286C
:1001600001DA01244042002901DA01254942FFF762
:10017000DDFFAC4200D04042002C00D0494270BDAF
:1001800010B5202A04DB0846203AD040002110BDDB
:100190000B46D340D0402024A21A91400843194670
:1001A00010BD03460B439B0703D009E008C9121F8B
:1001B00008C0042AFAD203E00B780370401C491CE3
:1001C000521EF9D27047D2B201E00270401C491EA3
:1001D000FBD270470022F6E710B513460A460446E4
:1001E0001946FFF7F0FF204610BD0000064C012520
:1001F000064E05E0E36807CC2B430C3C98471034CF
:10020000B442F7D3FFF760FF5C2600087C260008A5
:10021000F8B501462D48FFF79FFF07462C4C0020FC
:100220002056182148432B49002640188088216B0E
:10023000884200D22663226B2749012590420BD0C9
:100240006379002B08D1A379002B05D17D231B01F5
:100250000B6002236382A57190420AD16079002865
:1002600007D1A079002804D11C4808602663658264
:10027000A57100F0ABFBA16A884216D900F0A6FB7D
:10028000C019A06200F0A2FB3230E0620920012216
:10029000618AC00600F093FB0C21114801F03CFA82
:1002A0006571206B401C2063A67100F08FFBE16A32
:1002B00088420AD909200022618AC00600F07FFB2B
:1002C0000C21074801F04AFA6671F8BD60EA0000A7
:1002D0000400002044000020400400408813000077
:1002E0007002002010B51D4900228B8B012802D01E
:1002F000002802D003E05B1C00E05B1E8B839BB2F6
:100300000120052B03D9012205238B8303E0002B59
:1003100001D1002288834C7A0023012C02D0002CCA
:1003200004D015E0002A13D14B7204E0002A02D059
:10033000CC8B641CCC83CC8B1E2C05D9002A03D01B
:10034000CB834872022010BD002C01D0002A01D0BE
:10035000002010BDCB834872012010BD0400002096
:1003600030B51E4900220B8B012802D0002802D094
:1003700003E05B1C00E05B1E0B839BB20120142B8F
:1003800003D9012214230B8303E0002B01D10022A7
:1003900008830C7A0023012C02D0002C04D017E033
:1003A000002A15D10B7204E0002A02D04C8B641C89
:1003B0004C834C8BFF252D35AC4205D9002A03D048
:1003C0004B830872022030BD002C01D0002A01D0DE
:1003D000002030BD4B830872012030BD0400002096
:1003E00010B51D4900220B8C012802D0002802D034
:1003F00003E05B1C00E05B1E0B849BB20120052B1D
:1004000003D9012205230B8403E0002B01D1002234
:1004100008848C7A0023012C02D0002C04D015E033
:10042000002A13D18B7204E0002A02D04C8C641C89
:100430004C844C8C1E2C05D9002A03D04B84887226
:10044000022010BD002C01D0002A01D0002010BDD8
:100450004B848872012010BD0400002030B51E4975
:1004600000228B8A012802D0002802D003E05B1C06
:1004700000E05B1E8B829BB20120142B03D901226A
:1004800014238B8203E0002B01D100228882CC79D7
:100490000023012C02D0002C04D017E0002A15D133
:1004A000CB7104E0002A02D0CC8A641CCC82CC8AB6
:1004B000FF252D35AC4205D9002A03D0CB82C87167
:1004C000022030BD002C01D0002A01D0002030BD18
:1004D000CB82C871012030BD04000020F0B5224C51
:1004E0000025A18C85B0012802D0002802D003E0AD
:1004F000491C00E0491EA18488B2052804D90125C1
:100500000520A08428462AE0002829D1A07B0128C4
:1005100021D1002001900120144F039002970090F8
:1005200000F08AF9694601A800F0EEF800261048AC
:10053000B100425800233946022000F03FF900285C
:1005400002D1761CF6B23F1D782EF0D900F02CF9BE
:10055000A08C002804D100250120A0842846A07387
:10056000284605B0F0BD000004000020007C000813
:100570004400002001B5084806490068FFF7D6FD91
:10058000009948430090411E009101D30846FAE7C4
:1005900008BD0000404B4C0040000020F8B5202072
:1005A00000F05EF9402000F05BF90924E4064021E8
:1005B000204600F0FFF901250E4E012800D13570CC
:1005C0004021204600F0F6F90027002800D13770BE
:1005D00020212646204600F0EDF9074C012800D1E5
:1005E00025702021304600F0E5F9002800D1277061
:1005F000F8BD00000500002006000020064900208C
:10060000C861064801690422114301610169402261
:100610001143016170470000B00200200020024039
:10062000064A0021D16106490A6902231A430A6178
:10063000486108694022104308617047B0020020F9
:100640000020024010B5054B0022DA61044A13690C
:10065000012423431361018010BD0000B00200207B
:100660000020024010B50B4A0020D168CB060A4991
:1006700004D5C86902231843C8611020D3685B07FA
:1006800005D5CB6901242343CB6104210843D06005
:1006900010BD000000200240B002002070B50546E9
:1006A00000F094F90646104C0AE0681C08D0002DB2
:1006B00004D000F08BF9801BA84201D9032070BD43
:1006C000E068C007F1D1E068800601D52020E06035
:1006D000E068C00602D4E068400703D5FFF7C2FF18
:1006E000012070BD002070BD0020024031B500F037
:1006F0006DF9009C0546601C00D0641C00F066F992
:10070000401BA042FAD338BDF8B5054623480F4632
:10071000017E012601290BD0012101762868204C99
:10072000012807D02046FFF7B9FF002813D030E09A
:100730000220F8BD2046FFF7B1FF002829D1FFF7BE
:100740005DFF2046FFF7AAFF06461648016904220E
:10075000914301611DE00020C04338606C6812E0E5
:100760002046FFF75DFF0E48FFF798FF06460D484D
:10077000026902218A430261002E01D03C6008E038
:10078000012080022418A868810268680818A04225
:10079000E6D80248002101763046F8BDB0020020BC
:1007A00050C3000000200240034801698022114329
:1007B000016100207047000000200240F0B51FB426
:1007C00007461A480024017E15461E46012907D017
:1007D000012101761648FFF761FF002803D020E0D1
:1007E000022005B0F0BD012F02D0022F00D0042757
:1007F000220128463146FFF7C3FC81B2019862000E
:100800001018FFF71FFF0A48FFF748FF09490A6958
:10081000520852000A61002803D1641CE4B2BC42B1
:10082000E6D3024900220A76DBE70000B00200208E
:1008300050C300000020024005480169090605D5A3
:10084000044941600449416000207047012070471D
:100850000020024023016745AB89EFCD70470000BF
:1008600010B504494A69024202D04861FFF7F6FF19
:1008700010BD000000040140F8B5002389E0012408
:100880009C402A46A44622407ED04C68022C01D0CF
:10089000122C0CD1DC08A40027183C6A5D07ED0E71
:1008A0000F26AE40B4430E69AE4026433E62056853
:1008B0005E000324B4400F79A543BF07BF0FB740C4
:1008C0002F4307604D68012D05D0022D03D0112D57
:1008D00001D0122D0ED18568CF68A543B7402F43B4
:1008E000876047686546AF430D79ED06ED0F9D4083
:1008F0003D434560C568A5438C68B4402C43C46043
:100900004C68E40044D5264CA56901263543A56111
:10091000A4699D0834400094224CAD002F19BC6896
:100920009D072E0F0F25B540AC430925ED06A842C3
:1009300001D100250AE01C4DA84201D1012505E0A6
:100940001A4DA84201D1022500E00525B5402543F6
:10095000BD60174C25684E689543F60300D51543D6
:10096000256065684E689543B60300D515436560FC
:10097000A5684E689543F60200D51543A560E56865
:100980004E689543B60200E002E000D51543E560ED
:100990005B1C0A681546DA4000D070E7F8BD00001D
:1009A0000010024000000140000400480008004818
:1009B000000401400069084000D001207047002A6F
:1009C00001D0816170478162704700000148006872
:1009D000704700003C00002070B50246403253785A
:1009E000202B1CD11378012B19D001231370242440
:1009F0005470046825689D432560046825681E03BB
:100A0000B5432560046825680D43256000680168CA
:100A100019430160202050700020107070BD02202A
:100A200070BD70B5024640325378202B1BD113782D
:100A3000012B18D0012414702423537003681D68FF
:100A4000A5431D6005682B680F263602B3430902D3
:100A5000194329600068016821430160202050701B
:100A60000020107070BD022070BD000070B5040041
:100A700006D02546403568780026002802D005E0DB
:100A8000012070BD2E70204600F0D6F8242068703A
:100A9000206801684908490001600F216068090663
:100AA00088432168086121688A680120C003824365
:100AB0008A60E1680129A16808D0212292021143CD
:100AC00022689160E168022902D005E00143F7E75E
:100AD00001212268C902516021684A680F4B1A43FC
:100AE0004A602168CA688243CA6061692069084314
:100AF000A169090208432168C860216AE0690843C6
:100B00002168086020680168012211430160666461
:100B1000202068702663AE70002070BD0080000247
:100B2000FFB5054604464035687881B020287ED15F
:100B3000287801287BD001202870FFF747FF07465F
:100B4000012200901923D103204600F09BFE0028CB
:100B50003FD1212068701020A87000266664039899
:100B60006062049860856663618D01204003FF29FF
:100B700003D9FF222285009034E0618D2185009009
:100B800036E02046029900F06BFE36E000F0C5FE2C
:100B9000002803D0606C042847D01AE0606A411C2A
:100BA0006162017820688162608D401E6085208DC1
:100BB000401E0004000C20851FD1608D00281CD031
:100BC00000970022802120460A9B00F05BFE00284F
:100BD00002D0032005B0F0BD608DFF2805D9FF22AB
:100BE0002285009601231B06CBE7608D20850096A9
:100BF000208D0123C2B25B06C3E7608D0A990028ED
:100C00003A462046C2D100F061FE0028C2D12168D8
:100C10002020C86121684A68064B1A404A60687003
:100C2000AE702E700020D5E701E00120D2E702204F
:100C3000D0E7000000E800FE10B586B0044614219D
:100C40006846FFF7C7FA13492068884220D1124C42
:100C50006169012040040143616161690140032031
:100C60000591400200901220019001200290032083
:100C700003900420049009206946C006FFF7FCFD9C
:100C8000E169012040050143E161E169014005910D
:100C900006B010BD00540040001002400248016838
:100CA000491C0160704700003C00002010B5064858
:100CB0000168102211430160002000F007F800F0E5
:100CC00017F8002010BD00000020024010B50446B7
:100CD00000F060F97D21C900FFF728FA00F090FBD1
:100CE00000222146501E00F021F8002010BD000017
:100CF00008B5084881690122114381618169114069
:100D00000091C26901040A43C261C06908400090B1
:100D100008BD000000100240C106C90E0120884035
:100D2000014908607047000000E100E010B500F0E4
:100D300059FF10BDF8B5044600683E4DC00352D5BA
:100D4000E8690026C00007D4E96928040143E96185
:100D5000E96901400126009137480168C90510D4AE
:100D60000168821511430160FFF730FE074604E079
:100D7000FFF72CFEC01B642824D82F480068C0054C
:100D8000F6D5286A03273F02384020D061683940F1
:100D900081421CD0286A2A6AB843012109040A4307
:100DA0002A622A6A8A432A622862C0070FD0FFF7A4
:100DB0000DFE009008E0FFF709FE0099411A1F4858
:100DC000814201D90320F8BD286A8007F3D5286A3B
:100DD0006168B84308432862002E04D0E969012005
:100DE00000078143E9612078C00705D0286BA1681E
:100DF00080088000084328632078800605D5286B8A
:100E000010218843E168084328632068800305D5E2
:100E1000286B802188436169084328632088400546
:100E200005D5286B402188432169084328630020A9
:100E3000F8BD000000100240007000408813000060
:100E4000F8B505464E480E460068C007C00FB042D0
:100E50000AD24B48016849084900314301600068E3
:100E6000C007C00FB04270D12878464C800705D526
:100E70006068F0218843A968084360602878C0074B
:100E800053D06868012817D0022818D0032819D039
:100E900021688907002958DA6168890889000143B7
:100EA0006160FFF793FD69680746012913D00229A5
:100EB0001DD0032927D034E021688903EAE721689F
:100EC0008901E7E7616BC903E4E7FFF77FFDC11B19
:100ED0002D48814223D860680007800F0128F4D193
:100EE00023E0FFF773FDC11B2748814217D86068D4
:100EF0000007800F0228F4D117E0FFF767FDC11B40
:100F0000214881420BD860680007800F0328F4D184
:100F10000BE0FFF75BFDC11B1B48814201D9032099
:100F2000F8BD60680007800FF3D115480168C90754
:100F3000C90FB1420BD9016849084900314301602A
:100F40000068C007C00FB04201D00120F8BD28786A
:100F5000400706D56068072109028843E96808430D
:100F6000606000F01DF86168084A0906090F515CCD
:100F7000C840074908600020FFF7A8FE0020F8BD20
:100F80000020024000100240881300004A2600089A
:100F90004000002001480068704700004000002029
:100FA00030B516A30FCB89B06C460FC417A30FCB77
:100FB0000FC41A494A680C20144604401848042CEF
:100FC00005D0184B082C04D00C2C00D1184609B0C1
:100FD00030BD9402240F6D462C5DC96A04AD09072B
:100FE000090FD203695C920F022A02D0032A00D1B2
:100FF0001846FFF79BF86043E9E700000203040589
:10100000060708090A0B0C0D0E0F1010010203044D
:1010100005060708090A0B0C0D0E0F100010024000
:1010200000127A00006CDC02FEB504460078F04E37
:10103000F04DC00748D068680007800F01281FD016
:1010400068680007800F022804D16868C003800F19
:10105000022815D06168012919D0012080040029D7
:1010600001D0052917D02968B14329602968814337
:101070002960606800281BD0FFF7A8FC074613E032
:101080002868800320D56068002876D01CE0286896
:1010900030432860EDE7296801432960F7E7FFF74F
:1010A00095FCC01B642869D828688003F7D50BE03D
:1010B000FFF78CFC074604E0FFF788FCC01B6428A0
:1010C000F1D828688003F7D4207880073ED5686877
:1010D0000007800F14D068680007800F022804D131
:1010E0006868C003800F01280AD0E06800282868DB
:1010F0001DD0012108432860FFF768FC07460BE07C
:10110000286880070BD5E068012836D107E0FFF793
:101110005DFCC01B0228C6D828688007F7D5286860
:10112000F82188432169C900084328600EE040087F
:1011300040002860FFF74AFC074604E0FFF746FC42
:10114000C01B0228AFD828688007F7D42078000792
:1011500024D5E0690028686A11D00121084368623B
:10116000FFF734FC074604E0FFF730FCC01B022801
:1011700099D8686A8007F7D510E036E1D1E04008D9
:1011800040006862FFF722FC074604E0FFF71EFC00
:10119000C01B022887D8686A8007F7D42078042704
:1011A0004007002861DA00200190E869C00008D4F7
:1011B000E969B8060143E961E9690140012000914C
:1011C00001908D480168C90511D401688215114349
:1011D0000160FFF7FBFB009005E0FFF7F7FB0099CC
:1011E000401A642897D884480068C005F5D5A068DF
:1011F00001280AD0002801D0052811D0286A40080B
:1012000040002862286AB84302E0286A01210843A6
:101210002862A068002812D0FFF7D8FB00900AE0EF
:10122000286A38432862F0E7FFF7D0FB0099411A9B
:101230007248814275D8286A8007F5D50DE0FFF71E
:10124000C5FB009006E0FFF7C1FB0099411A6B480F
:10125000814266D8286A8007F5D40198002804D016
:10126000E969012000078143E9612078C00635D58E
:10127000606901280CD0401D686B24D03843686336
:10128000686B400840006863FFF7A0FB074622E058
:10129000686B38436863686B012108436863FFF734
:1012A00095FB074604E0FFF791FBC01B022838D8E6
:1012B000686B8007F7D5686BF8218843A169C9007E
:1012C000084368630AE0B8436863F4E7FFF77EFB0E
:1012D000C01B022825D8686B8007F7D420788006C9
:1012E00037D568680007800F032813D068680007A7
:1012F000800F022804D16868C003800F032809D03A
:10130000206A0028686B16D030436863FFF75EFBE5
:1013100006460CE0686BC0031BD5206A012864D127
:1013200017E05BE0FFF752FB801B022856D8686B82
:10133000C003F7D50DE0B0436863FFF747FB0646EF
:1013400004E0FFF743FB801B022847D8686BC0030B
:10135000F7D4606A002846D069680907890F022916
:1013600043D0012636060228286805D0B0432860FD
:10137000FFF72CFB044633E0B0432860FFF726FB61
:10138000074604E0FFF722FBC01B022826D8286886
:101390008001F7D4E86A216B000900010843E86284
:1013A000A16AE06A084369687B22D203914308433B
:1013B0006860286830432860FFF708FB044604E0B3
:1013C000FFF704FB001B022808D828688001F7D526
:1013D00009E0FFF7FBFA001B022801D90320FEBD3C
:1013E00028688001F5D40020FEBD0120FEBD00006C
:1013F000000001000010024000700040881300004F
:10140000094910B5401E884201D9012010BD074C82
:1014100060610321081F00F0E5FB0020A0610720A8
:101420002061002010BD0000FFFFFF0000E000E091
:1014300070B502462032137F012B1BD00123137796
:1014400002245477046865687026B54365600468B3
:1014500065680E68354365600468A5688026B543F5
:10146000A5600068846849680C4384605377002055
:10147000107770BD022070BD70B5040005D0254600
:101480002035687F002802D006E0012070BD0020D2
:101490002877204600F00AF802206877211D20688E
:1014A00000F0F2FC01206877002070BD08B50068EC
:1014B0000549884207D10548C26902210A43C26131
:1014C000C0690840009008BD0004004000100240C0
:1014D000F8B5054604462035287F012817D0012796
:1014E0002F7702206877226890687726FF23B04321
:1014F0001B02984390600868502837D00EDC2028E3
:1015000057D006DC00284ED0102840D14EE00220F3
:10151000F8BD302850D0402839D13CE060282DD08B
:10152000702817D001221203801A0ED090422ED1BB
:10153000CB684A688968206800F0F3FC20688168FD
:10154000012292031143816021E020688168C9086B
:10155000C900F8E7CB684A688968206800F0E1FCB8
:1015600021688868B0433043886010E0CA684968E1
:10157000206800F0CBFD5021206806E0CA68496869
:10158000206800F0D4FD6021206800F0D5FC6F7762
:1015900000202877F8BDCA684968206800F0B6FDC9
:1015A00040212068F1E700212068EEE71021206843
:1015B000EBE720212068E8E730212068E5E700001C
:1015C00010B586B0044614216846FEF703FE0D49A7
:1015D0002068884213D10C48426909130A434261CA
:1015E0004069084005900220009001900020029080
:1015F00003900120049069460448FFF73DF906B0C6
:1016000010BD00000004004000100240000400482B
:10161000F8B5064604462036307F0D4601280DD029
:1016200001203077022070770427002A08D0042A8E
:1016300016D0082A2AD00C2A4DD137E00220F8BD56
:10164000206800F081FC20688169082211438161D3
:1016500020688169B9438161206881692A6912E043
:10166000206800F0ADFC206882690121C9020A43AC
:101670008261206881690122920291438161206820
:1016800081692A6912021143816124E0206800F017
:10169000D1FC2068C26908210A43C2612068C1697F
:1016A000B943C1612068C1692A6912E0206800F06D
:1016B000FDFC2068C1690122D2021143C16120688A
:1016C000C269012189028A43C2612068C1692A690D
:1016D00012021143C1610120707700203077F8BDFC
:1016E00070B5040005D025462035687F002802D05B
:1016F00006E0012070BD00202877204600F00AF89F
:1017000002206877211D206800F0BEFB0120687769
:10171000002070BD7047000010B50446006801222B
:1017200000F0F4FB0A482168814205D00948814253
:1017300002D00948814204D1486C0122D2031043EF
:10174000486420680168012211430160002010BD37
:10175000002C0140004401400048014030B50446DF
:101760000068002200F0D2FB144A1348216893104D
:10177000814205D01248814202D0124881420AD1EA
:10178000086A104207D1086A184204D1486C012542
:10179000ED03A84348642068016A114206D1016A3A
:1017A000194203D101684908490001600120203431
:1017B0006077002030BD0000002C014011110000B6
:1017C0000044014000480140FEE701688A69D243B5
:1017D000920701D400228A6200688169C943C9075F
:1017E00003D081690122114381617047F7B5044636
:1017F00000680E468069C043C0062CD420272546C9
:10180000403520688069C04380060FD5701CF8D031
:10181000002E05D0FFF7DAF80299401AB042F0D94D
:101820006F700020A87028700320FEBD2168102072
:10183000C8612068C7612046FFF7C7FF206841687C
:10184000064A11404160042060646F700020A87057
:1018500028700120FEBD0020FEBD000000E800FE53
:1018600070B50568049C68688905890D1204044EEA
:1018700011431943304021430143696070BD0000AA
:10188000009800FCF8B51C4617460E46054611E0C8
:10189000601C0FD0002C05D0FFF798F80699401A6D
:1018A000A04207D92020403568700020A870287019
:1018B0000320F8BD286881693046884304D00020A1
:1018C000B842E5D00020F8BD0120F9E770B5164612
:1018D0000D4604461AE0324629462046FFF786FFA9
:1018E000002801D0012070BD002D04D0FFF76EF854
:1018F000801BA8420AD9616C2020014361644034F6
:1019000060700020A0702070032070BD2068806986
:10191000C0438006DFD4002070BD70B516460D466A
:1019200004461CE0324629462046FFF75FFF0028A8
:1019300001D0012070BD681C11D0002D04D0FFF72C
:1019400045F8801BA8420AD9616C202001436164DC
:10195000403460700020A0702070032070BD2068AB
:101960008069C0438007DDD4002070BD10B501211F
:1019700000F024FE10BD10B5802200290CD00129F2
:101980000CD002290CD0032905D154301043C0B229
:10199000002100F013FE10BD1043F9E74030F5E7D9
:1019A0001430F3E770B50546002404E0012100F08F
:1019B00005FE641CE4B2285D002801D0102CF5D38C
:1019C00070BD000008B50549012308700A200A46C9
:1019D00000907E210248FFF7A3F808BD0000002018
:1019E0002402002010B50F20FEF780FE032000F037
:1019F000FDFD0420FEF77AFE032000F0F7FD6420D1
:101A0000FEF7B8FD032000F0F1FD0120FEF76EFEA9
:101A1000022000F0EBFD0120FEF768FE00212820E7
:101A200000F0CCFD0120FEF761FE00210C2000F04B
:101A3000C5FD0120FEF75AFE0021012000F0BEFD89
:101A40000220FEF753FE0021062000F0B7FD012022
:101A5000FEF74CFE064C0821607808436070FFF7E3
:101A6000B1FF6078FD2108406070FFF7ABFF10BD4B
:101A70000000002070B586B014216846FEF7AAFB6E
:101A800026484269012189050A43426142690A40A8
:101A90000592426949110A43426142690A4005922E
:101AA000426949000A434261406909260840F60636
:101AB0000590002203213046FEF781FF03200090AD
:101AC00001200224002501AA31C269463046FEF7F2
:101AD000D3FE082000900194029469460395049473
:101AE0003046FEF7C9FE602000900D48019069461F
:101AF00002943046FEF7C0FE8020009069460195B2
:101B000002943046FEF7B8FE002211460720FFF788
:101B10000DF90720FFF700F906B070BD0010024074
:101B20000000311010B50D480B4901600C494160AF
:101B3000002181600161416181610122C161C26056
:101B40000162FEF793FF00210448FEF745FF0021E4
:101B50000248FEF766FF10BD00540040240200203A
:101B60000E09002010B58EB0002407940894099443
:101B70000A940B941C2168460C94FEF72BFB154924
:101B8000154812C00460846014490461416008383B
:101B9000FFF772FC01200003079007A90E48FFF72A
:101BA00097FC0D48FFF79CFD0B940BA90A480C9479
:101BB000FFF73EFC60200090042004900194029402
:101BC0000C2269460448FFF723FD0348FFF7F8FCA1
:101BD0000EB010BD0004004070020020102700006D
:101BE000704700008307FF22DB0E9A408907090E29
:101BF000994000280BDA0007000F083883080848CE
:101C00009B001818C36993430B43C3617047830853
:101C100004489B001B1818689043084318607047DD
:101C200000ED00E000E400E070470000F0B58BB08C
:101C30000E46074624225F4901A8FEF7B2FA5E4C21
:101C4000022E02D1E07A401CE072022F02D1E07A2B
:101C5000401EE072584A002010560B21574D1822A2
:101C6000615650434019112902DD0021E1720FE055
:101C7000002902DA1121E17202E0002908D02ADDF0
:101C80000B216156E2784118C879012A14D015E079
:101C9000012E02D18188491C8180012F02D18188C7
:101CA000491E81808188022901D2042102E0042991
:101CB00011D9022181800EE0401CC0B22279012A94
:101CC00001D1401EC0B25F2801D9412002E0412865
:101CD00000D25F20C8710B20205601AE4000811950
:101CE0004978305CFFF747FEFEF770FE616B884273
:101CF00032D9FEF76BFEFF30F5306063607B002861
:101D0000E07A02D000280BD017E020732020FFF7E4
:101D10002DFE01206073606BFF382D3860631BE07F
:101D200000202056182148434019828824A1684683
:101D300000F010FA6846FFF735FE0B202056002809
:101D400008DD002161561822514349190818C0794D
:101D5000FFF70CFE002060730C200B21205661560B
:101D6000884224D000210520FFF705FE00202056E0
:101D7000182148434019828811A1684600F0EAF909
:101D80006846FFF70FFE01210020FFF7F4FD002059
:101D900020561821484340190830FFF703FE0B2056
:101DA0002056400081194978305CFFF7E4FD0BB004
:101DB000F0BD000028260008040000204400002098
:101DC00025640000704710B5FEF768FF10BD30B500
:101DD00097B034216846FEF7FDF900240D940E9467
:101DE0000F94182111A81094FEF7F4F90225012090
:101DF00003901020099504900095C0020A900B945E
:101E00000C946846FFF710F907200D9080200F9082
:101E10000E95002110940DA8FFF712F820201190C4
:101E2000149411A8FEF786FF17B030BD134801685F
:101E30000122114301604168114A1140416001686B
:101E4000104A11400160016801229204914301602F
:101E500041683F22120491434160C16A09090901A6
:101E6000C162016BFF22D43291430163416B490887
:101E7000490041630021816070470000001002406A
:101E80000CB8FF08FFFFF6FEF0B502681A4B0124FC
:101E9000A4071A4D984203D0A04201D0A84203D112
:101EA0007026B2434E683243154E164F98420AD000
:101EB000A04208D0A84206D0134CA04203D0B042A2
:101EC00001D0B84204D103242402A243CC682243A7
:101ED0008024A2434C69224302608A68C2620A6875
:101EE0008262984203D0B04201D0B84201D1096960
:101EF000016301214161F0BD002C0140000400405C
:101F000000440140004801400020004010B501237A
:101F1000046A8B409C430462036A8A401343036251
:101F200010BD30B58468FF252D021B021343AC435E
:101F30000B432343836030BD826870239A430A4376
:101F400007210A4382607047F0B5026A52085200C6
:101F50000262056A436882697024A24392080C6891
:101F600092001443022295438A68134E2A43114D6E
:101F7000A84204D0B04202D0104FB84206D1082780
:101F8000BA43CF681743042297433A46A84204D085
:101F9000B04202D0094DA84206D103252D02AB4321
:101FA0004D691D438B692B434360846149684163DC
:101FB0000262F0BD002C0140004401400048014095
:101FC00070B5026A10239A430262046A4368826908
:101FD00073252D02AA430D682D0215432022944338
:101FE0008A6812012243104CA04208D11446CA68E4
:101FF0008026B443120122434024A24305E00B4C47
:10200000A04202D00A4CA04208D10324A402A34358
:102010004C69A4001C438B699B002343436085618A
:1020200049688163026270BD002C01400044014098
:102030000048014070B5026AFF2301339A430262EF
:10204000046A4368C2697025AA4392080D68920029
:1020500015430122520294438A6812022243104C13
:10206000A04207D1C414A243CC682402224306151F
:10207000B24305E00B4CA04202D00B4CA04208D169
:1020800003242403A3434C6924011C438B691B01D3
:1020900023434360C5614968C163026270BD0000AB
:1020A000002C0140004401400048014030B5026A64
:1020B00001231B039A430262056A4268C3697324C1
:1020C0002402A3430C6824021C4301235B039D43A9
:1020D0008B681B032B430A4DA84205D0094DA8422B
:1020E00002D0094DA84205D10125AD03AA434D698F
:1020F000AD012A434260C46149680164036230BD96
:10210000002C0140004401400048014030B5036A02
:10211000046A6408640004628469F025AC43120117
:1021200022430A24A3430B438261036230BD30B5CE
:10213000036A1024A34303628469036A0F252D03F5
:102140001203AC432243A024A34309011943826133
:10215000016230BD0FB410B504A9074B02AA039861
:1021600000F01CF8044602A9002000F0BFF8204649
:1021700010BC08BC04B01847ED22000802E008C8F3
:10218000121F08C1002AFAD170477047002001E0F1
:1021900001C1121F002AFBD170470000FFB58DB0AE
:1021A0000446002506E025280AD0109A0F9990478A
:1021B000641C6D1C20780028F5D1284611B0F0BDB4
:1021C00000270121484A009700E00743641C237858
:1021D0000846203B98401042F7D120782E2817D18E
:1021E000042007436078641C2A280CD10E98641CD4
:1021F00002C800910E900BE000990A225143303939
:102200004018641C00902078014630390929F3D920
:1022100020780028D1D0642808D0692806D07528F5
:102220001ED0109A0F9990476D1C5BE00A200E9902
:10223000019001C90E91002802DA40422D2102E0EE
:10224000390504D52B216A461172012103E0F907F3
:1022500004D02021F7E70BAE0B910DE00021FAE747
:102260000A200E99019001C90E91F7E70199FDF737
:102270005DFF3031761E31700028F7D103A8801B36
:1022800020300190780701D5009801E001200090EE
:102290000199884201DD401A00E0002000270090EB
:1022A00006E002A8109AC05D0F9990476D1C7F1C34
:1022B0000B988742F5DB04E0109A30200F99904785
:1022C0006D1C0099481E00900029F5DC05E030786F
:1022D000109A761C0F9990476D1C0199481E019029
:1022E0000029F4DC641C65E7092801000A68531C16
:1022F0000B601070704700008CB00020012104902A
:102300000691A1480791A14C0590002104C88B00BB
:10231000491CC9B2E2507829F8D9208813283ED048
:102320000025A0A00068009099A66A1C9EA168469E
:10233000FFF710FF284618216A4648431278011912
:102340008A706A465278CA7002228A80C822CA807D
:102350001322225200200B183278401CC0B2761C87
:102360001A721028F7D3FEF767FA07A904A8FEF738
:10237000CBF9854F0026B0002258002339460220B1
:10238000FEF71CFA002802D1761CF6B23F1D782E0B
:10239000F1D9FEF709FA6D1CEDB2142DC1D9FEF783
:1023A00085FCFFF714FDFFF765FBFFF7BBFBFFF7AD
:1023B000D9FBFFF717FB3220FEF798F900210846FA
:1023C000FFF7D9FA4E20FFF7D1FAA01CFFF7EAFA7F
:1023D00000210520FFF7CFFAA28873A108A8FFF714
:1023E000B9FE08A8FFF7DEFA70A0FFF7DBFA714D1F
:1023F0006DA12A8A09A8FFF7ADFE09A8FFF7D2FA56
:102400006DA0FFF7CFFA01210020FFF7B4FA5F4873
:102410000830FFF7C7FA0926F606002028561821CB
:1024200048430019C0882882FDF7F2FE802130461B
:10243000FEF7C0FAFEF752F801280ED00028ECD1C2
:10244000A878FDF74FFF28716878FDF7C9FFE8709D
:1024500001280FD0022816D024E0A878FDF780FFCD
:1024600028716878FDF7FAFFE87001462879FFF7D0
:10247000DDFBD2E700202856182148430119C888FF
:10248000401CC8800EE028780121401C28700020E4
:10249000FFF771FA00202856182148430019083028
:1024A000FFF780FA2879012802D0022809D01EE01F
:1024B00000202856182148430119C888401EC880AA
:1024C00015E028780121401E28700020FFF753FAFC
:1024D000002028561821484300190830FFF762FAF7
:1024E000002028560A2802DA2020FFF73FFA0020B1
:1024F0002856132801DD002002E0002801DA13200D
:10250000287000210520FFF736FA002028561821F0
:1025100048430019828824A101A8FFF71BFE01A8E7
:10252000FFF740FA00210A20FFF725FA002028567D
:10253000182148430019C088642802D22020FFF7E0
:1025400015FA00202856182148430019C28816A100
:1025500002A8FFF7FFFD02A8FFF724FA00210120DF
:10256000FFF709FA00202856182148430019801C5B
:10257000FFF718FA002028560A2800DB4DE7202034
:10258000FFF7F4F949E70000007C00084400002050
:102590005F5F5F5F5F5F5F5F5F5F5F5F5F5F5F5F4B
:1025A0000000000030300000256400002F3420209F
:1025B000000000000400002062706D0010B50A4A9F
:1025C0000446507800290BD0012108435070FFF7D2
:1025D000F9F9200900F00AF8204600F007F810BDCC
:1025E00040084000F2E700000000002070B500073E
:1025F0000C4C050E6078042108436070FFF7E2F987
:102600003220FDF7B7FF60782843FFF7DBF96078E9
:10261000FB2108406070FFF7D5F93220FDF7AAFFD3
:1026200070BD000000000020050000010101020152
:1026300003010401050106010701080109010A015E
:102640000B010C010D010E010F0100000000000044
:102650000000010203040607080900007C260008A8
:1026600000000020440000007C210008C026000873
:10267000440000208C0600008C21000800000000AF
:10268000000000000000000000000000000000004A
:10269000C800020000000000000000000000000070
:1026A000000000000000000000000000000000002A
:1026B00000000000000000000000000000127A008E
:04000005080000C12E
:00000001FF
